:100000000C943E000C9453000C9453000C94530039
:100010000C9453000C9453000C9453000C94530014
:100020000C9453000C9453000C9453000C94530004
:100030000C9453000C9453000C9453000C945300F4
:100040000C9453000C9453000C9453000C945300E4
:100050000C9453000C9453000C9453000C945300D4
:100060000C9453000C9453000C9453000C945300C4
:100070000C9453000C9453000C94530011241FBE95
:10008000CFEFD8E0DEBFCDBF11E0A0E0B1E0EEEDF4
:10009000FCE002C005900D92A633B107D9F70E948B
:1000A0000E010C946D060C9400009B01AC0160E203
:1000B00071EA87E090E00E9461032150310930939A
:1000C000C5002093C40088E08093C10086E080933F
:1000D000C20008959091C00095FFFCCF8093C600A8
:1000E0000895CF93DF93EC0103C021960E946A002C
:1000F00088818111FACFDF91CF9108951092B900D4
:1001000080E28093B800089584EA8093BC008091D7
:10011000BC008823E4F7089584E98093BC00089527
:100120008093BB0084E88093BC008091BC0088234E
:10013000E4F7089520E4829FC0011124846880932D
:10014000BC008091BC008823E4F78091BB00089537
:10015000CF930E94840080E90E94900080E40E9476
:1001600090000E948C008FE19EE40197F1F700C09F
:1001700000000E94840081E90E94900080E00E94BB
:100180009A000E948C000E94840081E90E949000E5
:1001900080E00E949A00C82F0E948C008C2FCF9183
:1001A000089584B1806B84B984B18F7B84B985B1A3
:1001B000806185B983E58CBD089595B19F7E95B921
:1001C0008EBD0DB407FEFDCF82E08A95F1F700C029
:1001D00085B1806185B90895682F70E080E090E076
:1001E0000E94680220E030E040EA50E40E94F402FD
:1001F00020E030E04FE753E40E94C50120E030E00A
:1002000048EC52E40E94F40220E030E040E05FE37A
:100210000E9459010E943702862F0895CF93DF93E1
:10022000CDB7DEB7E2970FB6F894DEBF0FBECDBFF5
:100230002FEF84E39CE0215080409040E1F700C024
:10024000000060E875E280E090E00E9455000E94A6
:100250007E000E94D10080E091E00E9471000E9427
:10026000A800182F0E94EC00082F0E94DD001F92AA
:100270000F931F921F938DE191E09F938F938E01B7
:100280000F5F1F4F1F930F930E948303C8010E94AB
:1002900071002FEF89E698E1215080409040E1F70E
:1002A00000C000000FB6F894DEBF0FBECDBFD7CFA1
:1002B0005058BB27AA270E9470010C94BA020E94D2
:1002C000AC0238F00E94B30220F039F49F3F19F4D9
:1002D00026F40C94A9020EF4E095E7FB0C94A3021B
:1002E000E92F0E94CB0258F3BA17620773078407FD
:1002F000950720F079F4A6F50C94ED020EF4E09544
:100300000B2EBA2FA02D0B01B90190010C01CA01CF
:10031000A0011124FF27591B99F0593F50F4503E7A
:1003200068F11A16F040A22F232F342F4427585F6C
:10033000F3CF469537952795A795F0405395C9F784
:100340007EF41F16BA0B620B730B840BBAF091503C
:10035000A1F0FF0FBB1F661F771F881FC2F70EC0DB
:10036000BA0F621F731F841F48F4879577956795AE
:10037000B795F7959E3F08F0B0CF9395880F08F09A
:100380009927EE0F9795879508950E94D9010C94AF
:10039000BA020E94B30258F00E94AC0240F029F465
:1003A0005F3F29F00C94A30251110C94EE020C94BF
:1003B000A9020E94CB0268F39923B1F3552391F36C
:1003C000951B550BBB27AA2762177307840738F0C4
:1003D0009F5F5F4F220F331F441FAA1FA9F335D021
:1003E0000E2E3AF0E0E832D091505040E695001CD5
:1003F000CAF72BD0FE2F29D0660F771F881FBB1F8F
:10040000261737074807AB07B0E809F0BB0B802D6C
:10041000BF01FF2793585F4F3AF09E3F510578F098
:100420000C94A3020C94EE025F3FE4F3983ED4F3E5
:10043000869577956795B795F7959F5FC9F7880F6C
:10044000911D9695879597F90895E1E0660F771FBE
:10045000881FBB1F621773078407BA0720F0621B4F
:10046000730B840BBA0BEE1F88F7E09508950E947A
:10047000D30288F09F5798F0B92F9927B751B0F061
:10048000E1F0660F771F881F991F1AF0BA95C9F718
:1004900014C0B13091F00E94ED02B1E008950C94C7
:1004A000ED02672F782F8827B85F39F0B93FCCF37A
:1004B000869577956795B395D9F73EF49095809595
:1004C000709561957F4F8F4F9F4F0895E89409C0B5
:1004D00097FB3EF490958095709561957F4F8F4F77
:1004E0009F4F9923A9F0F92F96E9BB279395F6958D
:1004F000879577956795B795F111F8CFFAF4BB0F0B
:1005000011F460FF1BC06F5F7F4F8F4F9F4F16C06E
:10051000882311F096E911C0772321F09EE8872FF8
:10052000762F05C0662371F096E8862F70E060E0B4
:100530002AF09A95660F771F881FDAF7880F96952D
:10054000879597F9089597F99F6780E870E060E0D4
:1005500008959FEF80EC089500240A94161617065C
:1005600018060906089500240A94121613061406A4
:1005700005060895092E0394000C11F4882352F007
:10058000BB0F40F4BF2B11F460FF04C06F5F7F4FBF
:100590008F4F9F4F089557FD9058440F551F59F0A6
:1005A0005F3F71F04795880F97FB991F61F09F3F60
:1005B00079F087950895121613061406551FF2CF89
:1005C0004695F1DF08C0161617061806991FF1CFD9
:1005D00086957105610508940895E894BB27662700
:1005E0007727CB0197F908950E9407030C94BA026C
:1005F0000E94AC0238F00E94B30220F0952311F063
:100600000C94A3020C94A90211240C94EE020E94F3
:10061000CB0270F3959FC1F3950F50E0551F629F79
:10062000F001729FBB27F00DB11D639FAA27F00D4B
:10063000B11DAA1F649F6627B00DA11D661F829F72
:100640002227B00DA11D621F739FB00DA11D621F57
:10065000839FA00D611D221F749F3327A00D611D74
:10066000231F849F600D211D822F762F6A2F112456
:100670009F5750409AF0F1F088234AF0EE0FFF1F89
:10068000BB1F661F771F881F91505040A9F79E3FE0
:10069000510580F00C94A3020C94EE025F3FE4F34A
:1006A000983ED4F3869577956795B795F795E79536
:1006B0009F5FC1F7FE2B880F911D9695879597F93F
:1006C0000895A1E21A2EAA1BBB1BFD010DC0AA1F93
:1006D000BB1FEE1FFF1FA217B307E407F50720F0AB
:1006E000A21BB30BE40BF50B661F771F881F991F26
:1006F0001A9469F760957095809590959B01AC016F
:10070000BD01CF010895AEE0B0E0E9E8F3E00C945C
:1007100044060D891E8986E08C831A8309838FEF36
:100720009FE79E838D83AE01475E5F4F6F89788D13
:10073000CE0101960E94A503EF81F885E00FF11F1D
:1007400010822E96E4E00C946006ABE0B0E0EBEA99
:10075000F3E00C9436066C017B018A01FC011782E0
:100760001682838181FFCCC1CE0101963C01F60146
:100770009381F70193FD859193FF81917F018823F8
:1007800009F4BAC1853239F493FD859193FF8191C3
:100790007F01853229F4B60190E00E949C05E7CFE5
:1007A000912C212C312CFFE1F315D8F08B3279F00C
:1007B00038F4803279F08332A1F4232D20611DC0FA
:1007C0008D3261F0803369F4232D216016C0832DB2
:1007D0008260382EE32DE4603E2E2AC0F32DF860AF
:1007E0001DC037FC2DC020ED280F2A3040F08E327E
:1007F000B9F436FC81C1232D2064322E19C036FE97
:1008000006C08AE0989E200D1124922E11C0EAE0C5
:100810002E9E200D1124222EF32DF0623F2E08C0B3
:100820008C3621F4832D8068382E02C0883641F43E
:10083000F70193FD859193FF81917F018111B3CFE2
:10084000982F9F7D9554933028F40C5F1F4F9FE3A2
:1008500099830DC0833631F0833771F0833509F009
:1008600059C021C0F801808189830E5F1F4F882401
:100870008394912C530113C02801F2E04F0E511CB8
:10088000F801A080B18036FE03C0692D70E002C07F
:100890006FEF7FEFC5010E9491054C018201F32D9E
:1008A000FF773F2E16C0280122E0420E511CF801AE
:1008B000A080B18036FE03C0692D70E002C06FEFEA
:1008C0007FEFC5010E9486054C01F32DF0683F2E95
:1008D000820133FC1BC0822D90E088169906B0F48B
:1008E000B60180E290E00E949C052A94F4CFF501C5
:1008F00037FC859137FE81915F01B60190E00E943F
:100900009C0521102A9421E0821A910881149104F7
:1009100071F7E8C0843611F0893641F5F80137FEE9
:1009200007C060817181828193810C5F1F4F08C075
:1009300060817181072E000C880B990B0E5F1F4F91
:10094000F32DFF763F2E97FF09C090958095709507
:1009500061957F4F8F4F9F4FF0683F2E2AE030E028
:10096000A3010E94D805882E861845C0853731F42A
:10097000232D2F7EB22E2AE030E025C0932D997FC3
:10098000B92E8F36C1F018F4883579F0B5C08037AC
:1009900019F0883721F0B0C0E92FE061BE2EB4FE17
:1009A0000DC0FB2DF460BF2E09C034FE0AC0292FF4
:1009B0002660B22E06C028E030E005C020E130E01D
:1009C00002C020E132E0F801B7FE07C0608171810A
:1009D000828193810C5F1F4F06C06081718180E02E
:1009E00090E00E5F1F4FA3010E94D805882E861845
:1009F000FB2DFF773F2E36FE0DC0232D2E7FA22E1E
:100A0000891458F434FE0BC032FC09C0832D8E7E4D
:100A1000A82E05C0B82CA32C03C0B82C01C0B92C3B
:100A2000A4FE0FC0FE01E80DF11D8081803321F48A
:100A30009A2D997EA92E09C0A2FE06C0B394B39444
:100A400004C08A2D867809F0B394A3FC11C0A0FEDF
:100A500006C0B21488F4280C922C9B180EC0B21455
:100A600060F4B60180E290E00E949C05B394F7CF59
:100A7000B21418F42B1802C0982C212CA4FE10C01C
:100A8000B60180E390E00E949C05A2FE17C0A1FC85
:100A900003C088E790E002C088E590E0B6010CC092
:100AA0008A2D867859F0A1FE02C08BE201C080E257
:100AB000A7FC8DE2B60190E00E949C05891438F4F1
:100AC000B60180E390E00E949C059A94F7CF8A9447
:100AD000F301E80DF11D8081B60190E00E949C05B4
:100AE0008110F5CF222009F442CEB60180E290E0D9
:100AF0000E949C052A94F6CFF6018681978102C058
:100B00008FEF9FEF2B96E2E10C945206FC010590CB
:100B1000615070400110D8F7809590958E0F9F1FFF
:100B20000895FC016150704001900110D8F7809544
:100B300090958E0F9F1F08950F931F93CF93DF9370
:100B4000FB01238121FD03C08FEF9FEF2CC022FF0B
:100B500016C046815781248135814217530744F4DA
:100B6000A081B1819D012F5F3F4F318320838C9302
:100B7000268137812F5F3F4F3783268314C08B0137
:100B8000EC01FB010084F185E02D0995892BE1F64C
:100B9000D80116968D919C911797019617969C9364
:100BA0008E931697CE01DF91CF911F910F910895EB
:100BB000FA01AA27283051F1203181F1E8946F938E
:100BC0006E7F6E5F7F4F8F4F9F4FAF4FB1E03ED034
:100BD000B4E03CD0670F781F891F9A1FA11D680FD2
:100BE000791F8A1F911DA11D6A0F711D811D911D05
:100BF000A11D20D009F468943F912AE0269F11247A
:100C00003019305D3193DEF6CF010895462F4770DD
:100C1000405D4193B3E00FD0C9F7F6CF462F4F7038
:100C2000405D4A3318F0495D31FD4052419302D096
:100C3000A9F7EACFB4E0A69597958795779567953C
:100C4000BA95C9F700976105710508959B01AC013C
:100C50000A2E06945795479537952795BA95C9F763
:100C6000620F731F841F951FA01D08952F923F923E
:100C70004F925F926F927F928F929F92AF92BF92AC
:100C8000CF92DF92EF92FF920F931F93CF93DF9358
:100C9000CDB7DEB7CA1BDB0B0FB6F894DEBF0FBEB5
:100CA000CDBF09942A88398848885F846E847D8402
:100CB0008C849B84AA84B984C884DF80EE80FD8004
:100CC0000C811B81AA81B981CE0FD11D0FB6F8947A
:0E0CD000DEBF0FBECDBFED010895F894FFCF3B
:100CDE0054656D7065726174757265204D617374C3
:100CEE00657220537461727465640D0A0041444349
:100CFE003A202564202D3E2054656D703A202564DF
:060D0E0020430D0A000065
:00000001FF
